:100000000C942A000C9434000C9434000C943400AA
:100010000C9434000C9434000C9434000C94340090
:100020000C9434000C9434000C9434000C94340080
:100030000C9434000C9434000C9434000C94340070
:100040000C9434000C9434000C9434000C94340060
:100050000C94340011241FBECFE5D8E0DEBFCDBF25
:100060000E9436000C94E3000C940000DF93CF93C1
:10007000CDB7DEB7ABE3B0E0EBE3F0E080818160C9
:100080008C93ABE3B0E0EBE3F0E0808182608C9393
:10009000A7E3B0E0E7E3F0E080818E7F8C93A7E3F5
:1000A000B0E0E7E3F0E080818D7F8C93A7E3B0E0E0
:1000B000E7E3F0E080818B7F8C93E8E3F0E087E07A
:1000C0008083EAE3F0E01082E6E3F0E08081882FAD
:1000D00090E081709070009701F5E6E3F0E0808198
:1000E0008695882F90E081709070982F81E0892705
:1000F000882399F4E6E3F0E0808186958695882F41
:1001000090E081709070982F81E08927882329F4EE
:10011000EAE3F0E081E08083D7CFE6E3F0E080819E
:100120008695882F90E0817090700097F9F4E6E34F
:10013000F0E08081882F90E081709070982F81E0AE
:100140008927882399F4E6E3F0E0808186958695F7
:10015000882F90E081709070982F81E08927882304
:1001600029F4EAE3F0E082E08083AECFE6E3F0E05A
:10017000808186958695882F90E081709070009799
:10018000F1F4E6E3F0E08081882F90E081709070D8
:10019000982F81E08927882391F4E6E3F0E08081BD
:1001A0008695882F90E081709070982F81E0892744
:1001B000882329F4EAE3F0E083E0808385CFEAE353
:0A01C000F0E0108281CFF894FFCF29
:00000001FF
