:100000000C942A000C943F000C943F000C943F0089
:100010000C943F000C943F000C943F000C943F0064
:100020000C943F000C943F000C943F000C943F0054
:100030000C943F000C943F000C943F000C943F0044
:100040000C943F000C943F000C943F000C943F0034
:100050000C943F0011241FBECFE5D8E0DEBFCDBF1A
:1000600010E0A0E6B0E0ECEDF1E002C005900D92EA
:10007000AA36B107D9F70E9441000C94EC000C9409
:100080000000DF93CF93CDB7DEB760970FB6F8943B
:10009000DEBF0FBECDBFCE0102969D878C87E0E606
:1000A000F0E0FF87EE87FAE0F88BEE85FF850080B1
:1000B0008E859F8501969F878E87EC85FD850082C2
:1000C0008C859D8501969D878C8798899150988B0A
:1000D000E889EE2351F7ABE3B0E0EBE3F0E0808199
:1000E0008E7F8C93ABE3B0E0EBE3F0E080818D7F1B
:1000F0008C93EAE3F0E01082E7E3F0E08FEF808397
:10010000E8E3F0E010821982E9E3F0E08081882FD3
:1001100090E081709070982F81E08927882331F5D5
:10012000E9E3F0E080818695882F90E081709070FF
:100130000097E1F4E9E3F0E08081882F90E081709E
:1001400090708823B9F789818930F0F689818F5FB3
:100150008983A8E3B0E08981282F30E0CE010296A0
:10016000FC01E20FF31F80818C93CECFE9E3F0E036
:1001700080818695882F90E081709070882321F28D
:10018000E9E3F0E08081882F90E081709070009723
:1001900009F0BACFE9E3F0E080818695882F90E0FE
:1001A000817090708823B1F78981882309F4ACCFDE
:1001B00089818A3008F0A8CF898181508983A8E39A
:1001C000B0E08981282F30E0CE010296FC01E20FD9
:0C01D000F31F80818C9398CFF894FFCF30
:0A01DC003F065B4F666D7D077F6FE5
:00000001FF
